:020000040800F2
:1000000078040020C1010008B9020008B10200080C
:10001000B5020008AB020008B903000800000000A8
:10002000000000000000000000000000E7020008DF
:10003000AF02000800000000E5020008E902000825
:10004000DB010008DB010008DB010008DB01000820
:10005000DB010008DB010008DB010008DB01000810
:10006000DB010008DB010008DB010008DB01000800
:10007000DB010008DB010008DB010008DB010008F0
:10008000DB010008DB010008DB010008DB010008E0
:10009000DB010008DB010008DB010008DB010008D0
:1000A000DB010008DB010008DB010008DB010008C0
:1000B000DB010008DB010008DB010008DB010008B0
:1000C000DB010008DB010008DB010008DB010008A0
:1000D000DB010008DB010008DB010008DB01000890
:1000E000DB010008DB010008DB010008DB01000880
:1000F000DB010008DB010008DB010008DB01000870
:10010000DB010008DB010008DB010008DB0100085F
:10011000DB010008DB010008DB010008DB0100084F
:10012000DB010008DB010008DB010008DB0100083F
:10013000DB010008DB010008DB010008DB0100082F
:10014000DB010008DB010008DB010008DB0100081F
:10015000DB010008DB010008DB010008DB0100080F
:10016000DB010008DB010008DB010008DB010008FF
:10017000DB010008DB010008DB01000800000000D3
:10018000DB010008DB010008DB010008DB010008DF
:10019000DB010008DB010008DB01000800000000B3
:1001A000DB010008DB010008DB010008DFF80CD0F0
:1001B00000F04AF800480047351200087804002093
:1001C0000648804706480047FEE7FEE7FEE7FEE7F1
:1001D000FEE7FEE7FEE7FEE7FEE7FEE7F1020008C6
:1001E000AD0100082DE9F05F0546002092469B46D0
:1001F00088460646814640241BE02846414647463D
:10020000224600F042F853465A46C01A914110D394
:1002100011461846224600F029F82D1A67EB01080E
:100220004F4622460120002100F020F817EB00097C
:100230004E41201EA4F10104DFDC484631462A4627
:100240004346BDE8F09F0000064C074D06E0E0681D
:1002500040F0010394E8070098471034AC42F6D30D
:10026000FFF7A8FF2C1800084C180008202A04DB10
:10027000203A00FA02F1002070479140C2F12003B9
:1002800020FA03F3194390407047202A04DB203AF8
:1002900021FA02F00021704721FA02F3D040C2F1A6
:1002A0002002914008431946704700BFFEE770479F
:1002B00000BFFEE700BFFEE77047000010B5002852
:1002C00007DA0A07140E054A00F00F031B1FD45467
:1002D00003E00A07130E024A135410BD18ED00E0A4
:1002E00000E400E07047704710B500F0C3FA10BD9D
:1002F00008B52D48006840F470002B4908602B4871
:10030000006840F00100294908602848083000686A
:1003100040F080002549083108600020009002E08C
:100320000098401C00904CF2503100988842F7D35E
:100330001E480830006840F090001C4908310860F1
:100340000020009002E00098401C00904CF25031D8
:1003500000988842F7D315480830006820F0030061
:1003600012490831086011480068114908400F49D6
:1003700008600846006820F48020086000200B49CF
:100380000831086000BF09480830006800200028D4
:10039000F9D108480549091D0860002003490C31BE
:1003A000086001F00DF908BD88ED00E0003802405A
:1003B000FFFFF6FE1030002400BFFEE70FB4054B30
:1003C00010B503A9044A029800F018F810BC5DF8B3
:1003D00014FB00005D0C00087400002002E008C857
:1003E000121F08C1002AFAD170477047002001E0AF
:1003F00001C1121F002AFBD1704700002DE9FF4FF9
:100400008DB00F460546002606E025280BD0DDE915
:100410000F1290476D1C761C28780028F5D111B07A
:100420003046BDE8F08F0024A246A1460122EC49E7
:1004300000E0044315F8013F203B02FA03F00842B4
:10044000F7D128782A2810D06FF02F022878A0F151
:100450003001092914D80AEB8A0102EB410144F06A
:10046000020400EB010A6D1CF0E701CF5FEA000A0D
:1004700003D544F40054CAF1000A44F002046D1C90
:1004800028782E2817D115F8010F44F004042A28E3
:100490000ED06FF02F022878A0F1300109290AD878
:1004A00009EB890102EB410100EB01096D1CF2E748
:1004B00057F8049B6D1C28786C280FD006DC4C285C
:1004C00017D068280DD06A2814D104E0742810D001
:1004D0007A280FD10DE044F400140AE044F48014AB
:1004E00001E044F440146978814202D104F580149B
:1004F0006D1C6D1C2A786E2A1FD00CDC632A31D04B
:1005000004DC002A8BD0582A11D1A3E0642A68D0D9
:10051000692A0CD165E0732A2ED004DC6F2A73D0CF
:10052000702A04D19BE0752A6FD0782A6ED01046CD
:10053000DDE90F129047761C50E1C4F30250022807
:1005400006D0032809D0042801CF09D0066045E170
:1005500001CFF117C0E9006140E101CF06803DE124
:1005600006703BE117F8040B8DF8000000208DF8B1
:100570000100EB46012003E057F804BB4FF0FF30C9
:1005800061074FF0000102D40DE008F10101884637
:1005900049450FDA8045F8DB1BF808100029F4D133
:1005A00008E008F1010188468142FADB1BF80810D7
:1005B0000029F6D1DDE90F23AAEB08008146214688
:1005C00000F036F9304400EB080604E0DDE90F12D4
:1005D0001BF8010B9047B8F10108F7D221464846B5
:1005E000F7E00A21C4F302534FF0000B0891022BED
:1005F00004D001CFC117032B09D00AE0FF1D27F05B
:100600000707F7E8020108E032E01FE020E000B24F
:10061000C117042B01D140B2C117031E71F10003B1
:1006200007DA4FF0000CD0EB0C006CEB01012D232E
:1006300002E0230504D52B238DF82430012303E0A9
:10064000E30701D02023F7E7984658E00A2110E09D
:1006500010210EE010204FF0000B08900CE010214C
:100660004FF0000B44F004044FF00809089103E038
:1006700008214FF0000B0891C4F30253022B04D061
:1006800001CF0021032B06D006E0FF1D27F007074E
:10069000F7E8020103E080B2042B00D1C0B24FF0B2
:1006A000000823072BD5702A07D0DDF820C08CF076
:1006B000100C5CEA0B0C05D00EE040238DF82430C2
:1006C000012308E050EA010306D030238DF82430DE
:1006D0008DF8252002239846DDF820C08CF0080C08
:1006E0005CEA0B0C0BD150EA010301D1630706D57C
:1006F00030238DF824304FF00108A9F10109582A60
:1007000004D038A20B9208AA0A920BE03AA2F9E7A9
:100710005B46089AFFF766FD0B9B9B5C0A9A521E8C
:100720000A92137050EA0102F2D10A98ADEB000070
:1007300000F1200B600702D524F4803401E04FF073
:100740000109D94502DDA9EB0B0000E0002000EB18
:100750000B0141440890AAEB010AE00306D4DDE94D
:100760000F232146504600F063F806444FF000097D
:1007700008E009A911F80900DDE90F12904709F115
:100780000109761CC145F4DBE0030CD5DDE90F233C
:100790002146504600F04CF8064404E0DDE90F1213
:1007A00030209047761C0899481E08900029F5DCF7
:1007B00008E00A980A990078491C0A91DDE90F12AD
:1007C0009047761CBBF10001ABF1010BF1DC214637
:1007D0005046DDE90F2300F019F806446D1C1BE6B6
:1007E0000928010030313233343536373839616207
:1007F00063646566000000003031323334353637CB
:100800003839414243444546000000002DE9F0419B
:10081000044600251E461746880404D405E03946E0
:100820002020B0476D1C641EF9D52846BDE8F08134
:100830002DE9F041044600251E469046C80301D527
:10084000302700E02027880404D505E041463846DB
:10085000B0476D1C641EF9D52846BDE8F081000044
:100860000349086000BF024909680029FBD17047AD
:100870000C0000200448006820B103480068401EB6
:1008800001490860704700000C00002070B5054663
:100890000E46144600BF40F20161534800F04BFC85
:1008A0000028F8D1022C03D1A1024F4800F084FBAC
:1008B0004D4800F067FC00BF4FF4A0614A4800F0CB
:1008C0003AFC0028F8D06FF00102484801884648F9
:1008D00000F040FC00BF40F20151434800F02BFC07
:1008E0000028F8D040F201513F4800F010FC00BF52
:1008F00040F207513C4800F01EFC0128F8D13A486C
:1009000000F000FC3146384800F0F2FB00BF40F236
:100910000251354800F00FFC0028F8D0324800F0B2
:1009200031FC00BF4FF4A0612F4800F004FC002808
:10093000F8D001222D4801882B4800F00BFC032C35
:1009400003DA0021284800F02FFB00BF40F20151DC
:10095000254800F0F0FB0028F8D040F20151224871
:1009600000F0D5FB012C02D11F4800F010FC27E05D
:10097000032C0BD100BF40F202511B4800F0DBFBFF
:100980000028F8D00021184800F00EFB022C0AD1F4
:1009900000BF40F20251144800F0CDFB0028F8D00F
:1009A000114800F0F4FB40F206510F4800F0C3FB81
:1009B00030B10D4800F098FB28706D1C601E84B2A9
:1009C000002CD5D100BF0848006800F40070002852
:1009D000F9D14FF48061044800F0E6FA00210248A2
:1009E00000F0EAFA70BD0000005400400000002052
:1009F0002DE9F04707460D4614464FF00009C8465A
:100A0000C24600262846E91705EB5171C910A5EB2F
:100A1000C10101F0FF0ACAF10800C6B22046E11781
:100A200004EB5171C1F3C709E11704EB5171C9100F
:100A3000A4EBC10101F0FF08BAF1000F1DD10AE0DB
:100A400008222946384600F05DF800F0BDF805F1AF
:100A50000800C5B20837B9F10000A9F1010101F0A1
:100A6000FF09EDD1B8F1000F49D04246294638467A
:100A700000F048F800F0A8F841E0B44207DAE2B22A
:100A80002946384600F03EF800F09EF837E0A01BFB
:100A900084B22046E11704EB5171C1F3C709E11795
:100AA00004EB5171C910A4EBC10101F0FF084EB174
:100AB00032462946384600F025F800F085F8A81996
:100AC000C5B237440AE008222946384600F01AF831
:100AD00000F07AF805F10800C5B20837B9F1000056
:100AE000A9F1010101F0FF09EDD1B8F1000F06D025
:100AF00042462946384600F005F800F065F8BDE8A2
:100B0000F087000070B504460E46154600BF40F25F
:100B100001612B4800F00FFB0028F8D1284800F0B5
:100B200031FB00BF4FF4A061254800F004FB002812
:100B3000F8D06FF0010223480188214800F00AFB39
:100B400000BF40F201511E4800F0F5FA0028F8D02D
:100B500040F201511A4800F0DAFA00BF40F20751A2
:100B6000174800F0E8FA0128F8D13146144800F09F
:100B7000BFFA00BF40F20251114800F0DCFA002831
:100B8000F8D00CE021780E4800F0B2FA641C00BFE7
:100B900040F202510A4800F0CEFA0028F8D0281E90
:100BA000A5F10101CDB2EDD1054800F0F0FA00BF8A
:100BB0000348006800F400700028F9D170BD0000FF
:100BC000005400400000002008B50020009040E0E4
:100BD00000BF40F201611F4800F0ADFA0028F8D1D3
:100BE0001C4800F0CFFA00BF4FF4A061194800F094
:100BF000A2FA0028F8D06FF00102174801881548C2
:100C000000F0A8FA00BF134814300068009040F2CA
:100C10000241009808400028F5D0009800F002003A
:100C200040B140F201510B4800F071FA094800F060
:100C3000AEFA08BD40F20A51064800F068FA0548CD
:100C400000F0A5FA00BF0348006800F40070002817
:100C5000F9D1BDE7005400400000002070B5044603
:100C60000D46E1B2054800F04BFD00BF07210348E7
:100C700000F0BDFD0028F9D0204670BD00100140F5
:100C800070B5054600242748854200D100BF4FF4C7
:100C9000406000F0E1FB244931F8140000F0DCFB77
:100CA000224850F824200721214800F05DF821480F
:100CB00050F8242007211E4800F056F81B4850F831
:100CC0002430012202211A4800F0AAF8174850F8EF
:100CD000243002220021164800F0C9F8154850F8C7
:100CE000243001220221124800F09AF8114850F8ED
:100CF0002430022200210E4800F0B9F8284600F006
:100D000003FD4FF4E131284600F086FC042128461B
:100D100000F07CFD0821284600F080FD284600F008
:100D200061FD70BD00100140280000202C00002053
:100D30000000024030000020034951F82010034A0F
:100D400052F82020916270471C0000201000002003
:100D5000034951F82010034A52F82020916170474E
:100D60001C00002010000020F0B503461C6A5D6ADC
:100D700000200DE00126864016403EB187000F2678
:100D8000BE40B443860001FA06F63443461CB0B2B6
:100D90000828EFD3082011E00126864016405EB1F6
:100DA000A0F10806B7000F26BE40B543A0F1080623
:100DB000B60001FA06F63543461CB0B21028EBD354
:100DC0001C625D62F0BD81627047000010B540F6A4
:100DD000014000F041FB402204211048FFF7C4FF0E
:100DE000802204210D48FFF7BFFF4023012202218A
:100DF0000A4800F015F8402302220121074800F0BC
:100E000036F8802301220221044800F009F88023EB
:100E100002220121014800F02AF810BD000402401E
:100E2000F0B504460D4616462168E268002019E038
:100E3000012787401F409FB14FEA400C032707FA64
:100E40000CF7B943470005FA07F739434FEA400C5E
:100E5000032707FA0CF7BA43470006FA07F73A43A5
:100E6000471CB8B21028E3D32160E260F0BDF0B5B2
:100E70000C461546012C03D146681E43466002E02D
:100E800046689E434660826800210DE001268E4040
:100E90001E403EB14F000326BE40B2434E0005FA4D
:100EA00006F632434E1CB1B21029EFD38260F0BD7A
:100EB00030B5ADF5017D2BA0FFF780FA002512E0DB
:100EC00041A94D5541A8415D2BA0FFF777FAE917DD
:100ED00005EB11710911A5EB01110F2902D125A014
:100EE000FFF76CFA6D1CFF2DEADD4FF480720021D4
:100EF00041A8FFF77DFD22A0FFF760FA4FF4807252
:100F0000002101A8FFF7C2FC002423E001A8005D36
:100F100041A9095D88420BD041A8015D16A0FFF7E9
:100F20004DFA1CA0FFF74AFA01200DF5017D30BDF6
:100F300001A8015D10A0FFF741FAE11704EB117160
:100F40000911A4EB01110F2902D10AA0FFF736FA0B
:100F5000601C84B2FF2CD9DD10A0FFF72FFA00200F
:100F6000E3E700000D0A2077726974696E672E2E20
:100F70002E2E2E200D0A0000307825303258200009
:100F80000D0A2072656164696E672E2E2E2E2E204A
:100F90000D0A00004552520A0D00000054455354FA
:100FA00020504153534544000A460021016821F472
:100FB00080611143016070470A460021016821F4F5
:100FC00000611143016070472DE9F05F04460E4651
:100FD0009346022000F0AEF907463148B7FBF0F91E
:100FE000B9F13C0F01D34FF03C09D4F804A02AF02A
:100FF0003F0A4AEA090AC4F804A02A4886421ED8D1
:101000002748B7FBF0F000F10108B8F13C0F02D31C
:101010003C20206207E0B8F1020F02D802202062D3
:1010200001E0C4F820807000B7FBF0F5042D00D279
:101030000425E069C5F30B010843E0612EE01A487E
:1010400086422BD84FF4967009FB00F04FF47A716A
:10105000B0FBF1F0401C2062BBF1000F08D106EBA1
:101060004600B7FBF0F5E06920F48040E06109E05C
:1010700006EBC60000EB0610B7FBF0F5E06940F4A4
:101080008040E061C5F30B0008B945F00105E06957
:1010900040F40040E061E0692843E061BDE8F09F72
:1010A00040420F00A0860100801A060010B541F2F0
:1010B000150000F0D1F9002209490A48FFF784FF22
:1010C000A02300221146074800F04EF8054800F022
:1010D00019F84FF480610348FFF766FF10BD000068
:1010E000801A06000054004001460869C0B27047EB
:1010F000CAB2026170470000A02001490880704711
:1011000000000020016841F001010160704710B546
:1011100040F20152914202D1426982690AE000EB39
:101120009112126801F01F040123A3409A4300EBBF
:1011300091131A6010BD10B5024602EB91100068C1
:1011400001F01F040123A340184008B1012010BD85
:101150000020FCE712F1020F02D121F0010101E0B1
:1011600041F001010161704730B50C460021016872
:1011700021F0020121430160C3F3090342EA0305A0
:10118000856030BD016841F480710160704701687D
:1011900041F400710160704710B540F6034000F063
:1011A0005BF940F6064000F057F930230022012198
:1011B0000E48FFF735FE3023022200210B48FFF7CF
:1011C00056FE0823002201210948FFF729FE0823C3
:1011D000022200210648FFF74AFE30210348FFF7AC
:1011E000F2FD08210248FFF7EEFD10BD000C0240A1
:1011F0000018024010B5044624B1012C06D0022C80
:101200000CD107E00020FFF7A3FD11E00120FFF75C
:101210009FFD0DE00220FFF79BFD09E00020FFF796
:1012200097FD0120FFF794FD0220FFF791FD00BF1D
:1012300000BF10BD00F0C8F9FFF7AEFF2248FFF76E
:101240001FFD22A0FFF7BAF8FFF7C0FDFFF72EFF42
:10125000FFF752FF28A0FFF7B1F82F492FA0FFF7A3
:10126000ADF8FFF725FE20BB22E00020FFF764FD6C
:101270000120FFF761FD0220FFF75EFD2C4800789A
:10128000032190FBF1F201FB1200C4B22046FFF7EC
:10129000B1FF27480078401C2549087008460078AF
:1012A000032801DB002008704FF4FA70FFF7D8FA2A
:1012B000DBE70020FFF74CFD0120FFF749FD02208E
:1012C000FFF746FD00BFFEE7001001404744333200
:1012D0003435305A2D4556414C204932432D323455
:1012E00043303220636F6E666967757265642E2EB7
:1012F0002E2E0A0D0000000054484520493243308C
:1013000020495320484152445741524520494E54A8
:101310004552464143450000801A06000D0A2054FC
:10132000484520535045454420495320256400003A
:10133000080000202DE9F04F8CB0064600200A90EE
:101340003EA090E8004CC068CDE905BECDF810A0E5
:1013500007900FF2EC0ADAE9000ACDE9020A0FF26F
:10136000E00ADAE9000ACDE9000A38480068C0F36B
:1013700081000B900B9820B1012804D0022828D1BD
:1013800003E0334927E0334925E03048001F006877
:1013900000F03F072D48001F0068C0F3881C2B4851
:1013A000001F0068C0F30140401C4FEA4009274875
:1013B000001F006800F48008B8F5800F01D1254BAC
:1013C00000E0234BB3FBF7F000FB0CF0B0FBF9F1AE
:1013D00001E01F4900BF00BF1C480068C0F30314B0
:1013E00004A8055D21FA05F218480068C0F38224BC
:1013F00002A8055D22FA05F0099014480068C0F3C0
:1014000042341DF8045022FA05F0089036B1012E3E
:1014100006D0022E06D0032E0AD106E00A9108E07B
:101420000A9206E009980A9003E008980A9000E002
:1014300000BF00BF0A980CB0BDE8F08F00000000AC
:1014400000000000010203040607080908380240F2
:101450000024F40040787D01074A02EB9011D1F896
:10146000001800F01F0301229A401143024B03EBC6
:101470009012C2F80018704700300240074A02EB91
:101480009011D1F8001800F01F0301229A409143F7
:10149000024B03EB9012C2F8001870470030024074
:1014A000074A02EB9011D1F8001800F01F03012247
:1014B0009A401143024B03EB9012C2F80018704798
:1014C00000300240002000213A4A126842F4803283
:1014D000384B1A6000BF401C364A126802F40031D3
:1014E00019B94FF6FF729042F5D1324A126802F4F0
:1014F00000320AB900BFFEE72E4A4032126842F0BD
:1015000080522C4B40331A602B4A126842F44042FE
:10151000294B1A60274A08321268264B08331A6092
:101520001A46126842F400421A601A46126842F4DF
:10153000A0521A60214A1B1F1A601A1F126842F03B
:1015400080721B1F1A6000BF1A4A126802F00072F4
:10155000002AF9D0184A126842F48032164B1A60F9
:1015600000BF154A526802F48032002AF9D0124AAC
:10157000126842F40032104B1A6000BF0E4A5268E3
:1015800002F40032002AF9D00A4A0832126822F026
:101590000302084B08331A601A46126842F002022E
:1015A0001A6000BF034A0832126802F00802002ADB
:1015B000F8D07047003802400070004019644009BC
:1015C00010B5FFF77FFF10BD10B5124800684FF44B
:1015D0007A71B0FBF1F4601EB0F1807F01D301207D
:1015E0000FE0601E4FF0E02148610F214FF0FF3007
:1015F000FEF764FE00204FF0E021886107200861BB
:10160000002008B100BFFEE70021481EFEF756FE8D
:1016100010BD0000040000202DE9F04704460D46EF
:101620000027B846B94600263349601A8C4235D0A7
:101630000CDC32482044E8B1B0F5806F1FD0B0F523
:10164000006F21D0B0F5406F32D122E0B0F5806F4D
:1016500029D0B0F5184F03D0B0F51C4F28D104E0C5
:101660000320FFF767FE074623E00320FFF762FE33
:1016700007461EE00220FFF75DFE074619E0022044
:10168000FFF758FE074614E00220FFF753FE074617
:101690000FE00220FFF74EFE07460AE00220FFF7A8
:1016A00049FE074605E00220FFF744FE074600E03A
:1016B00000BF00BFE06800F4004070B1780000EBAC
:1016C0005500B0FBF5F64FF6F07006EA0008C6F3D9
:1016D000420948EA0900A0600CE007EB5500B0FBA6
:1016E000F5F64FF6F07006EA000806F00F0948EA32
:1016F0000900A060BDE8F0870078004000BCFFBF93
:10170000C1F308024260704710B504463349601ABD
:101710008C424DD00CDC32482044E0B1B0F5806FF3
:1017200022D0B0F5006F31D0B0F5406F52D136E025
:10173000B0F5806F45D0B0F5184F03D0B0F51C4F11
:1017400048D11AE040F60410FFF7AAFE40F6041054
:10175000FFF794FE3FE040F61100FFF7A1FE40F6D0
:101760001100FFF78BFE36E040F61200FFF798FEFF
:1017700040F61200FFF782FE2DE040F60510FFF75D
:101780008FFE40F60510FFF779FE24E040F61300C7
:10179000FFF786FE40F61300FFF770FE1BE040F6F1
:1017A0001400FFF77DFE40F61400FFF767FE12E01D
:1017B00040F61E00FFF774FE40F61E00FFF75EFEC7
:1017C00009E040F61F00FFF76BFE40F61F00FFF731
:1017D00055FE00E000BF00BF10BD000000780040D3
:1017E00000BCFFBFC16841F40051C160704710B533
:1017F000024602EB9110006801F01F040123A34090
:10180000184008B1012010BD0020FCE70A46002165
:10181000C16821F004011143C16070470A460021EC
:10182000C16821F008011143C16070474C180008DD
:101830000000002078000000DC030008C418000845
:101840007800002000040000EC0300080000000005
:1018500000C2EB0B0000000000000000000C024082
:10186000000C0240001802401000000020000000A0
:101870000800000004110000000200000004000045
:10188000030C030C060C000000000240000802409C
:1018900000040240010000000020000000400000A1
:1018A000000C020C010C00000100000000200000F0
:1018B00000400000000201000D0E06282800000074
:0418C0000000000024
:04000005080001AD41
:00000001FF
