:020000040800F2
:100000006008002031020008EB020008E702000847
:10001000E9020008E3020008650300080000000090
:10002000000000000000000000000000EF020008D7
:10003000E502000800000000ED020008F1020008DF
:100040004B0200084B0200084B0200084B0200085C
:100050004B0200084B0200084B0200084B0200084C
:100060004B0200084B0200084B0200084B0200083C
:100070004B0200084B0200084B0200084B0200082C
:100080004B0200084B0200084B0200084B0200081C
:100090004B0200084B0200084B0200084B0200080C
:1000A0004B0200084B0200084B0200084B020008FC
:1000B0004B0200084B0200084B0200084B020008EC
:1000C0004B0200084B0200084B0200084B020008DC
:1000D0004B0200084B0200084B0200084B020008CC
:1000E0004B0200084B0200084B0200084B020008BC
:1000F0004B0200084B0200084B0200084B020008AC
:100100004B0200084B0200084B0200084B0200089B
:100110004B0200084B0200084B0200084B0200088B
:100120004B0200084B0200084B0200084B0200087B
:100130004B0200084B0200084B0200084B0200086B
:100140004B0200084B0200084B0200084B0200085B
:100150004B0200084B0200084B0200084B0200084B
:100160004B0200084B0200084B0200084B0200083B
:100170004B0200084B0200084B0200080000000080
:100180004B0200084B0200084B0200084B0200081B
:100190004B0200084B0200084B0200080000000060
:1001A0004B0200084B0200084B02000800F002F866
:1001B00000F02EF80AA090E8000C82448344AAF1D3
:1001C0000107DA4501D100F023F8AFF2090EBAE8D1
:1001D0000F0013F0010F18BFFB1A43F0010318477B
:1001E00044020000540200000023002400250026E1
:1001F000103A28BF78C1FBD8520728BF30C148BF8A
:100200000B6070471FB500F007F91FBD10B510BD9A
:1002100000F031F81146FFF7F5FF00F0A4F800F008
:100220004FF803B4FFF7F2FF03BC00F053F80000EF
:100230000948804709480047FEE7FEE7FEE7FEE77A
:10024000FEE7FEE7FEE7FEE7FEE7FEE704480549B6
:10025000054A064B70470000F5020008AD01000892
:10026000600000206008002060040020600400207E
:10027000704770477047754600F028F8AE46050095
:100280006946534620F00700854618B020B5FFF7B1
:10029000DDFFBDE820404FF000064FF000074FF0B3
:1002A00000084FF0000B21F00701AC46ACE8C00994
:1002B000ACE8C009ACE8C009ACE8C0098D4670479D
:1002C0000446AFF300802046FFF7ABFF00487047BD
:1002D0000000002001491820ABBEFEE72600020006
:1002E0007047FEE77047FEE7FEE7704770477047CC
:1002F0007047000018B41748016841F470010160AC
:10030000154A106840F001001060134B083318685C
:1003100040F080001860002400944CF2503002E05D
:100320000099491C009100998142F9D31C60106822
:100330000A490840106008490948091D086010680A
:1003400020F48020106004480C30046018BC00F0D9
:1003500061B8000088ED00E000380240FFFFF6FEC3
:1003600010300024FEE7FEE710B50020264A116891
:1003700041F4803111604FF6FF73401C116801F4A5
:10038000003109B99842F8D11068800300D4FEE723
:100390001D484030016841F0805101601B490868E8
:1003A00040F4404008601848083003680360036860
:1003B00043F400430360036843F4A0530360041F45
:1003C000134B2360136843F08073136013689B0121
:1003D000FCD50A6842F480320A604A68D203FCD530
:1003E0000A6842F400320A604A689203FCD5016848
:1003F00021F003010160016841F002010160016820
:100400000907FCD510BD0000003802400070004014
:1004100019644009FFF7A8BF4FF04070E1EE100AE1
:10042000704700003404000800000020600800004D
:04043000E8010008D7
:04000005080001AD41
:00000001FF
