:020000040800F2
:10000000680800204D020008150300080D030008D1
:100010001103000807030008150400080000000091
:100020000000000000000000000000004303000882
:100030000B0300080000000041030008450300080E
:1000400067020008670200086702000867020008EC
:1000500067020008670200086702000867020008DC
:1000600067020008670200086702000867020008CC
:1000700067020008670200086702000867020008BC
:1000800067020008670200086702000867020008AC
:10009000670200086702000867020008670200089C
:1000A000670200086702000867020008670200088C
:1000B000670200086702000867020008670200087C
:1000C000670200086702000867020008670200086C
:1000D000670200086702000867020008670200085C
:1000E000670200086702000867020008670200084C
:1000F000670200086702000867020008670200083C
:10010000670200086702000867020008670200082B
:10011000670200086702000867020008670200081B
:10012000670200086702000867020008670200080B
:1001300067020008670200086702000867020008FB
:1001400067020008670200086702000867020008EB
:1001500067020008670200086702000867020008DB
:1001600067020008670200086702000867020008CB
:10017000670200086702000867020008000000002C
:1001800067020008670200086702000867020008AB
:10019000670200086702000867020008000000000C
:1001A00067020008670200086702000800F002F812
:1001B00000F03CF80AA090E8000C82448344AAF1C5
:1001C0000107DA4501D100F031F8AFF2090EBAE8C3
:1001D0000F0013F0010F18BFFB1A43F0010318477B
:1001E000F006000010070000103A24BF78C878C15C
:1001F000FAD8520724BF30C830C144BF04680C602D
:10020000704700000023002400250026103A28BF74
:1002100078C1FBD8520728BF30C148BF0B60704778
:100220001FB500F04FFB1FBD10B510BD00F031F839
:100230001146FFF7F5FF00F081FA00F04FF803B424
:10024000FFF7F2FF03BC00F057F8000009488047B1
:1002500009480047FEE7FEE7FEE7FEE7FEE7FEE7A8
:10026000FEE7FEE7FEE7FEE704480549054A064BC0
:10027000704700004D030008AD0100086800002031
:100280006808002068040020680400207047704758
:100290007047754600F02CF8AE4605006946534697
:1002A00020F00700854618B020B5FFF7DDFFBDE858
:1002B00020404FF000064FF000074FF000084FF0CD
:1002C000000B21F00701AC46ACE8C009ACE8C0095E
:1002D000ACE8C009ACE8C0098D46704710B50446CB
:1002E000AFF300802046BDE81040FFF7A8BF000034
:1002F000004870470800002001491820ABBEFEE707
:1003000026000200704700BFFEE7704700BFFEE70F
:1003100000BFFEE77047000010B5002807DA0A07A3
:10032000140E054A00F00F031B1FD45403E00A0704
:10033000130E024A135410BD18ED00E000E400E073
:100340007047704710B500F071F810BD08B52D4822
:10035000006840F470002B4908602B48006840F0AA
:1003600001002949086028480830006840F08000F2
:100370002549083108600020009002E00098401CE8
:1003800000904CF2503100988842F7D31E48083054
:10039000006840F090001C4908310860002000907F
:1003A00002E00098401C00904CF2503100988842C6
:1003B000F7D315480830006820F0030012490831CF
:1003C000086011480068114908400F490860084654
:1003D000006820F48020086000200B490831086084
:1003E00000BF09480830006800200028F9D10848FB
:1003F0000549091D0860002003490C31086000F020
:1004000035FA08BD88ED00E000380240FFFFF6FE37
:100410001030002400BFFEE70349086000BF024916
:1004200009680029FBD170470000002004480068DB
:1004300020B103480068401E014908607047000071
:100440000000002081627047C16270470246106957
:10045000084008B1012070470020FCE7F0B50446D1
:100460000D4616462168E268002019E00127874002
:100470001F409FB14FEA400C032707FA0CF7B9431E
:10048000470005FA07F739434FEA400C032707FAFC
:100490000CF7BA43470006FA07F73A43471CB8B2CD
:1004A0001028E3D32160E260F0BDF0B50C4615469C
:1004B000012C03D146681E43466002E046689E4315
:1004C0004660826800210DE001268E401E403EB14C
:1004D0004F000326BE40B2434E0005FA06F63243F3
:1004E0004E1CB1B21029EFD38260F0BD40F6064039
:1004F00000F02CF90823002201218B48FFF7AEFF02
:100500000823022200218848FFF7CFFF08218648F0
:10051000FFF798FF40F6034000F018F9302300225F
:1005200001218248FFF79AFF3023022200217F48F1
:10053000FFF7BBFF30217D48FFF784FF4FF4406099
:1005400000F004F90123002211467948FFF786FFE5
:1005500040F6024000F0FAF84FF400530022114632
:100560007448FFF77BFF40F6014000F0EFF84FF4CE
:100570008043002211467048FFF770FF00260024D8
:100580000025D0E04FF480416B48FFF75FFF78B95A
:1005900075B96420FFF740FF4FF480416648FFF7CC
:1005A00055FF28B925B908215F48FFF74DFF6D1C9D
:1005B0004FF480416048FFF749FF80B9012D0ED10B
:1005C0006420FFF729FFA9035B48FFF73FFF30B91D
:1005D000012D04D110215548FFF736FF6D1C4FF453
:1005E00080415548FFF732FF80B9022D0ED16420BB
:1005F000FFF712FF69035048FFF728FF30B9022DBB
:1006000004D120214948FFF71FFF6D1C032D00D1A5
:1006100000254FF400514748FFF718FF78B974B927
:100620006420FFF7F9FE4FF400514248FFF70EFF38
:1006300028B924B908213C48FFF706FF641C4FF491
:1006400000513C48FFF702FF80B9012C0ED1642015
:10065000FFF7E2FE61033748FFF7F8FE30B9012CDF
:1006600004D110213148FFF7EFFE641C4FF4005114
:100670003048FFF7EBFE80B9022C0ED16420FFF763
:10068000CBFE61032C48FFF7E1FE30B9022C04D108
:1006900020212648FFF7D8FE641C032C00D100243B
:1006A00001212348FFF7D2FE70B96EB96420FFF72D
:1006B000B3FE01211E48FFF7C9FE28B926B908215B
:1006C0001948FFF7C1FE761C01211948FFF7BEFE4D
:1006D00080B9012E0ED16420FFF79EFE012114483F
:1006E000FFF7B4FE30B9012E04D110210F48FFF7F7
:1006F000ABFE761C01210E48FFF7A8FE80B9022C44
:100700000ED16420FFF788FE01210948FFF79EFE05
:1007100030B9022C04D120210448FFF795FE761C45
:10072000032E00D100262DE700180240000C0240E5
:1007300000000240000802400004024010B500F032
:1007400099F8FFF7D3FE002010BD0000074A02EB26
:100750009011D1F8001800F01F0301229A401143B4
:10076000024B03EB9012C2F80018704700300240B1
:10077000002000213A4A126842F48032384B1A6055
:1007800000BF401C364A126802F4003119B94FF616
:10079000FF729042F5D1324A126802F400320AB96F
:1007A00000BFFEE72E4A4032126842F080522C4BC6
:1007B00040331A602B4A126842F44042294B1A60B7
:1007C000274A08321268264B08331A601A46126804
:1007D00042F400421A601A46126842F4A0521A60AB
:1007E000214A1B1F1A601A1F126842F080721B1FD9
:1007F0001A6000BF1A4A126802F00072002AF9D08B
:10080000184A126842F48032164B1A6000BF154A2B
:10081000526802F48032002AF9D0124A126842F477
:100820000032104B1A6000BF0E4A526802F40032C8
:10083000002AF9D00A4A0832126822F00302084B53
:1008400008331A601A46126842F002021A6000BFAA
:10085000034A0832126802F00802002AF8D07047F2
:1008600000380240007000401964400910B5FFF7DD
:100870007FFF10BD10B5124800684FF47A71B0FBCD
:10088000F1F4601EB0F1807F01D301200FE0601E03
:100890004FF0E02148610F214FF0FF30FFF73CFDA2
:1008A00000204FF0E021886107200861002008B196
:1008B00000BFFEE70021481EFFF72EFD10BD00001F
:1008C000040000204FF04070E1EE100A7047000075
:1008D000F00800080000002008000000E8010008FF
:1008E000F808000808000020600800000402000862
:0808F0000000000000C2EB0B48
:04000005080001AD41
:00000001FF
