:020000040800F2
:1000000008040020C1010008110200080D020008C8
:100010000F02000809020008CD02000800000000DD
:100020000000000000000000000000003502000891
:100030000B0200080000000033020008370200082D
:10004000DB010008DB010008DB010008DB01000820
:10005000DB010008DB010008DB010008DB01000810
:10006000DB010008DB010008DB010008DB01000800
:10007000DB010008DB010008DB010008DB010008F0
:10008000DB010008DB010008DB010008DB010008E0
:10009000DB010008DB010008DB010008DB010008D0
:1000A000DB010008DB010008DB010008DB010008C0
:1000B000DB010008DB010008DB010008DB010008B0
:1000C000DB010008DB010008DB010008DB010008A0
:1000D000DB010008DB010008DB010008DB01000890
:1000E000DB010008DB010008DB010008DB01000880
:1000F000DB010008DB010008DB010008DB01000870
:10010000DB010008DB010008DB010008DB0100085F
:10011000DB010008DB010008DB010008DB0100084F
:10012000DB010008DB010008DB010008DB0100083F
:10013000DB010008DB010008DB010008DB0100082F
:10014000DB010008DB010008DB010008DB0100081F
:10015000DB010008DB010008DB010008DB0100080F
:10016000DB010008DB010008DB010008DB010008FF
:10017000DB010008DB010008DB01000800000000D3
:10018000DB010008DB010008DB010008DB010008DF
:10019000DB010008DB010008DB01000800000000B3
:1001A000DB010008DB010008DB010008DFF80CD0F0
:1001B00000F018F800480047650400080804002013
:1001C0000648804706480047FEE7FEE7FEE7FEE7F1
:1001D000FEE7FEE7FEE7FEE7FEE7FEE73D0200087A
:1001E000AD010008064C074D06E0E06840F0010351
:1001F00094E8070098471034AC42F6D3FFF7DAFFD3
:1002000090050008B0050008FEE77047FEE7FEE72E
:1002100070470907090E002806DA00F00F0000F108
:10022000E02080F8141D704700F1E02080F80014F1
:1002300070477047704700F061B8000018B41F485D
:10024000016841F4700101601D4B186840F0010025
:1002500018601B4A0832106840F0800010600024CB
:1002600000944CF2503002E00099491C0091009932
:100270008142F9D3116841F090011160009402E0CD
:100280000099491C009100998142F9D3106820F02F
:100290000300106018680B4908401860186820F4C3
:1002A000802018601460106805490748091D08601F
:1002B00003480C30046018BC00F042B988ED00E03F
:1002C00000380240FFFFF6FE10300024FEE702E097
:1002D00008C8121F08C1002AFAD1704770470020D1
:1002E00001E001C1121F002AFBD1704702490860DA
:1002F00008680028FCD1704704000020034801680A
:10030000002902D00168491E0160704704000020E6
:1003100081627047816170472DE9F0470568C668C2
:1003200000244FF001084FF0030908FA04F71F42B8
:100330000ED0670009FA07FC25EA0C0501FA07FA56
:100340004AEA050526EA0C0602FA07FC4CEA06060C
:10035000641CA4B2102CE8D30560C660BDE8F08729
:100360002DE9F04101291AD0416899434160846820
:1003700000214FF001084FF0030C08FA01F71F426B
:1003800006D04D000CFA05F6B44302FA05F63443E4
:10039000491C89B21029F0D38460BDE8F08141681E
:1003A00019434160E3E7000040F6034000F062F8C3
:1003B00040F6064000F05EF8284C30230022012170
:1003C0002046FFF7A9FF3023022200212046FFF735
:1003D000C7FF234D0823002201212846FFF79CFF79
:1003E0000823022200212846FFF7BAFF30212046C9
:1003F000FFF78EFF08212846FFF78AFF4FF47A7631
:1004000010212046FFF786FF20212046FFF780FFBE
:1004100008212846FFF77CFF3046FFF767FF1021D1
:100420002046FFF775FF20212046FFF773FF0821C4
:100430002846FFF76DFF3046FFF758FF1021204692
:10044000FFF766FF20212046FFF762FF08212846BC
:10045000FFF760FF3046FFF749FFD1E7000C02408D
:100460000018024010B500F06DF8FFF79DFF002066
:1004700010BD0000064901EB9011D1F8002800F0F2
:100480001F03012098400243C1F800287047000074
:100490000030024010B50020264A116841F4803136
:1004A00011604FF6FF73401C116801F4003109B967
:1004B0009842F8D11068800300D4FEE71D48403010
:1004C000016841F0805101601B49086840F44040D8
:1004D00008601848083003680360036843F4004369
:1004E0000360036843F4A0530360041F134B2360AD
:1004F000136843F08073136013689B01FCD50A688E
:1005000042F480320A604A68D203FCD50A6842F499
:1005100000320A604A689203FCD5016821F00301A9
:100520000160016841F00201016001680907FCD522
:1005300010BD0000003802400070004019644009FE
:10054000FFF7A8BF70B511484FF47A710068B0FB8F
:10055000F1F1491E4FF0FF35B1F1807F01D3012148
:100560000BE04FF0E02461610F212846FFF751FEB8
:100570000020A06107202061002101B1FEE728468C
:10058000BDE870400021FFF744BE000000000020DD
:10059000B00500080000002008000000CE0200089E
:1005A000B80500080800002000040000DE02000872
:0805B00000C2EB0B000000008B
:04000005080001AD41
:00000001FF
