:020000040800F2
:1000000008040020C1010008170200080F020008C0
:100010001302000809020008150300080000000090
:100020000000000000000000000000004302000883
:100030000D0200080000000041020008450200080F
:10004000DB010008DB010008DB010008DB01000820
:10005000DB010008DB010008DB010008DB01000810
:10006000DB010008DB010008DB010008DB01000800
:10007000DB010008DB010008DB010008DB010008F0
:10008000DB010008DB010008DB010008DB010008E0
:10009000DB010008DB010008DB010008DB010008D0
:1000A000DB010008DB010008DB010008DB010008C0
:1000B000DB010008DB010008DB010008DB010008B0
:1000C000DB010008DB010008DB010008DB010008A0
:1000D000DB010008DB010008DB010008DB01000890
:1000E000DB010008DB010008DB010008DB01000880
:1000F000DB010008DB010008DB010008DB01000870
:10010000DB010008DB010008DB010008DB0100085F
:10011000DB010008DB010008DB010008DB0100084F
:10012000DB010008DB010008DB010008DB0100083F
:10013000DB010008DB010008DB010008DB0100082F
:10014000DB010008DB010008DB010008DB0100081F
:10015000DB010008DB010008DB010008DB0100080F
:10016000DB010008DB010008DB010008DB010008FF
:10017000DB010008DB010008DB01000800000000D3
:10018000DB010008DB010008DB010008DB010008DF
:10019000DB010008DB010008DB01000800000000B3
:1001A000DB010008DB010008DB010008DFF80CD0F0
:1001B00000F018F800480047510300080804002028
:1001C0000648804706480047FEE7FEE7FEE7FEE7F1
:1001D000FEE7FEE7FEE7FEE7FEE7FEE74D0200086A
:1001E000AD010008064C074D06E0E06840F0010351
:1001F00094E8070098471034AC42F6D3FFF7DAFFD3
:10020000B0040008D004000800BFFEE7704700BF3C
:10021000FEE700BFFEE7704710B5002807DA0A07BF
:10022000140E054A00F00F031B1FD45403E00A0705
:10023000130E024A135410BD18ED00E000E400E074
:100240007047704710B500F077F810BD08B52D481D
:10025000006840F470002B4908602B48006840F0AB
:1002600001002949086028480830006840F08000F3
:100270002549083108600020009002E00098401CE9
:1002800000904CF2503100988842F7D31E48083055
:10029000006840F090001C49083108600020009080
:1002A00002E00098401C00904CF2503100988842C7
:1002B000F7D315480830006820F0030012490831D0
:1002C000086011480068114908400F490860084655
:1002D000006820F48020086000200B490831086085
:1002E00000BF09480830006800200028F9D10848FC
:1002F0000549091D0860002003490C31086000F021
:10030000ABF808BD88ED00E000380240FFFFF6FEC4
:100310001030002400BFFEE702E008C8121F08C129
:10032000002AFAD170477047002001E001C1121F76
:10033000002AFBD1704700000448006820B1034840
:100340000068401E0149086070470000040000205A
:1003500010B500F085F8002010BD0000002000213D
:100360003A4A126842F48032384B1A6000BF401C8F
:10037000364A126802F4003119B94FF6FF72904202
:10038000F5D1324A126802F400320AB900BFFEE722
:100390002E4A4032126842F080522C4B40331A6091
:1003A0002B4A126842F44042294B1A60274A08320D
:1003B0001268264B08331A601A46126842F400424B
:1003C0001A601A46126842F4A0521A60214A1B1F92
:1003D0001A601A1F126842F080721B1F1A6000BF59
:1003E0001A4A126802F00072002AF9D0184A1268FC
:1003F00042F48032164B1A6000BF154A526802F46C
:100400008032002AF9D0124A126842F40032104BAE
:100410001A6000BF0E4A526802F40032002AF9D076
:100420000A4A0832126822F00302084B08331A60A5
:100430001A46126842F002021A6000BF034A0832EC
:10044000126802F00802002AF8D070470038024013
:10045000007000401964400910B5FFF77FFF10BD20
:1004600010B5124800684FF47A71B0FBF1F4601EC9
:10047000B0F1807F01D301200FE0601E4FF0E0213A
:1004800048610F214FF0FF30FFF7C6FE00204FF00C
:10049000E021886107200861002008B100BFFEE765
:1004A0000021481EFFF7B8FE10BD0000000000202C
:1004B000D004000800000020080000001803000815
:1004C000D8040008080000200004000028030008E9
:0804D00000C2EB0B000000006C
:04000005080001AD41
:00000001FF
