:020000040800F2
:1000000080040020C1010008170800080F0800083C
:10001000130800080908000815090008000000007E
:10002000000000000000000000000000430800087D
:100030000D080008000000004108000845080008FD
:10004000DB010008DB010008DB010008DB01000820
:10005000DB010008DB010008DB010008DB01000810
:10006000DB010008DB010008DB010008DB01000800
:10007000DB010008DB010008DB010008DB010008F0
:10008000DB010008DB010008DB010008DB010008E0
:10009000DB010008DB010008DB010008DB010008D0
:1000A000DB010008DB010008DB010008DB010008C0
:1000B000DB010008DB010008DB010008DB010008B0
:1000C000DB010008DB010008DB010008DB010008A0
:1000D000DB010008DB010008DB010008DB01000890
:1000E000DB010008DB010008DB010008DB01000880
:1000F000DB010008DB010008DB010008DB01000870
:10010000DB010008DB010008DB010008DB0100085F
:10011000DB010008DB010008DB010008DB0100084F
:10012000DB010008DB010008DB010008DB0100083F
:10013000DB010008DB010008DB010008DB0100082F
:10014000DB010008DB010008DB010008DB0100081F
:10015000DB010008DB010008DB010008DB0100080F
:10016000DB010008DB010008DB010008DB010008FF
:10017000DB010008DB010008DB01000800000000D3
:10018000DB010008DB010008DB010008DB010008DF
:10019000DB010008DB010008DB01000800000000B3
:1001A000DB010008DB010008DB010008DFF80CD0F0
:1001B00000F008FB00480047A11700088004002059
:1001C0000648804706480047FEE7FEE7FEE7FEE7F1
:1001D000FEE7FEE7FEE7FEE7FEE7FEE74D08000864
:1001E000AD0100082DE9FE4F804681EA0300C00FF3
:1001F0000C46009021F0004123F00045B8EB0200CE
:10020000A94105D24046214690461C460B4602466F
:1002100023F00040104347D0270DC7F30A00C3F373
:100220000A510290401A019040286BDAC3F3130080
:1002300040F4801B0098924620B10023D2EB030AC1
:1002400063EB0B0B01985946C0F14002504600F099
:10025000D4F906460D4650465946019A00F0DCF99D
:1002600010EB08006141002487EA115284EAE77329
:100270001A4340D0009A62B3019A012A4FEA07520A
:1002800015DC001B61EB02014FF0004202EA07524D
:10029000CDE90042001C41F5801132462B4600F0AA
:1002A00013FA03B0BDE8F08F40462146F9E7001B82
:1002B00061EB0201001C41F5801300185B4120181E
:1002C000A2F5001747EB030140EAD570B6196D415E
:1002D00011E06D084FEA360645EAC0754FEA07524D
:1002E000001B61EB0201001C41F5801149084FEA37
:1002F00030000019514132462B4603B0BDE8F04FA3
:1003000000F0D3B90098012240000023D0EB020294
:1003100063EBE073009821464FEAE074B8EB00000D
:1003200061EB0401E9E783F000435BE781F0004102
:1003300058E72DE9FE4F81EA030404F0004421F060
:10034000004100944FF0000B23F0004350EA0104F9
:100350005ED052EA03045BD0C3F30A54C1F30A55DA
:100360002C44A4F2F3340194A0FB0254C1F3130112
:1003700041F48011C3F3130343F4801301FB0244DF
:1003800000FB034E840A970A44EA815447EA8357E4
:10039000A4FB076802958D0A05FB07854FEA932C9D
:1003A00004FB0C542705029D4FEA065847EA16370E
:1003B000B5EB08056EEB070C870E920E47EA811726
:1003C00042EA8312A7FB0201B6EB0B0164EB0004C7
:1003D0002B0D43EA0C335E1844EB1C50DA465146B1
:1003E000E7FB0201C5F313044FEA0B3343EA14534E
:1003F0004FEA0432019C43EA0603A4F10C04029480
:10040000009CCDE900B400F05FF903B0BDE8F08FC7
:1004100000200146F9E72DE9F04D81EA030404F0DC
:10042000004B21F0004514464FF0000A23F0004134
:1004300050EA050220D054EA01021DD0C5F30A5744
:100440000246C5F31303C1F31300C1F30A5640F487
:10045000801543F48013A7EB0608101BD64608F25C
:10046000FD3873EB050002D308F1010801E0921892
:100470005B41B8F1000F03DA00200146BDE8F08DC2
:1004800000204FF48011064684460EE0171B73EBE4
:10049000050705D3121B63EB050306434CEA010C69
:1004A00049084FEA300092185B4150EA0107EDD14C
:1004B00052EA030012D082EA040083EA05010843ED
:1004C00005D0101BAB4106D20122002306E000221A
:1004D0004FF0004302E06FF0010253101AEB0600E8
:1004E0004CEB085110EB0A0041EB0B01BDE8F04D5D
:1004F00000F0DBB80EB540F2334102910021CDE9A6
:1005000000110A460B4600F0DFF803B000BD00F012
:10051000004230F000400AD0C10D01F56071C0F317
:10052000160042EA0151C2084007114370470020FB
:100530000146704701F0004330B421F0004150EA19
:10054000010206D00A0DA2F56072C1F31301002A60
:1005500002DC30BC00207047440F44EAC104C100F3
:10056000E01830BC00EBC25000F068B830B50B4664
:10057000014600202022012409E021FA02F59D42D3
:1005800005D303FA02F5491B04FA02F52844151EA7
:10059000A2F10102F1DC30BD2DE9F05F054600203B
:1005A00092469B4688460646814640241BE02846E4
:1005B00041464746224600F017F953465A46C01AAC
:1005C000914110D311461846224600F016F82D1A14
:1005D00067EB01084F4622460120002100F00DF88C
:1005E00017EB00094E41201EA4F10104DFDC484650
:1005F00031462A464346BDE8F09F202A04DB203AD4
:1006000000FA02F1002070479140C2F1200320FA65
:1006100003F3194390407047202A06DBCB17203A9A
:1006200041FA02F043EAE07306E041FA02F3D040F7
:10063000C2F1200291400843194670470029A8BF23
:100640007047401C490008BF20F00100704710B4FB
:10065000B0FA80FC00FA0CF050EA010404BF10BCB0
:10066000704749B1CCF1200421FA04F411FA0CF1DD
:1006700018BF012121430843A3EB0C01CB1D4FEA16
:1006800000614FEA102042BF002010BC704700EB11
:10069000C35010440029A4BF10BC7047401C49003F
:1006A00008BF20F0010010BC704710B5141E73F194
:1006B000000408DA401C41F1000192185B411A4322
:1006C00001D120F0010010BD2DE9F04D92469B466E
:1006D00011B1B1FA81F202E0B0FA80F22032904614
:1006E000FFF78BFF04460F4640EA0A0041EA0B0180
:1006F00053465A46084313D0114653EA010019D015
:10070000C8F14002504600F06FF805460E465046CC
:1007100059464246FFF771FF084305D0012004E027
:1007200020463946BDE8F08D0020054346EAE076D4
:100730002C4337430A986305E40AA0EB0800002223
:10074000FD0A44EA47540A3002D500200146E9E791
:10075000010510196941DDE9084500196941BDE845
:10076000F04DA2E7C1F30A52C1F3130140F2FF3387
:1007700041F480119A4202DA00200146704740F2AB
:1007800033439A42A2F2334202DC524200F02CB8C8
:10079000FFF733BF30B5041E71F1000404DB4FF0E6
:1007A0000044404264EB0101141E73F1000405DBB8
:1007B0001C464FF00043524263EB0403994208BFCA
:1007C000904230BD064C074D06E0E06840F0010362
:1007D00094E8070098471034AC42F6D3FFF7EAFCE0
:1007E000B01E0008D01E0008202A04DB203A21FA9F
:1007F00002F00021704721FA02F3D040C2F120023A
:10080000914008431946704700BFFEE7704700BF9C
:10081000FEE700BFFEE7704710B5002807DA0A07B9
:10082000140E054A00F00F031B1FD45403E00A07FF
:10083000130E024A135410BD18ED00E000E400E06E
:100840007047704710B500F04FFE10BD08B52D4839
:10085000006840F470002B4908602B48006840F0A5
:1008600001002949086028480830006840F08000ED
:100870002549083108600020009002E00098401CE3
:1008800000904CF2503100988842F7D31E4808304F
:10089000006840F090001C4908310860002000907A
:1008A00002E00098401C00904CF2503100988842C1
:1008B000F7D315480830006820F0030012490831CA
:1008C000086011480068114908400F49086008464F
:1008D000006820F48020086000200B49083108607F
:1008E00000BF09480830006800200028F9D10848F6
:1008F0000549091D0860002003490C31086001F01A
:10090000A1F908BD88ED00E000380240FFFFF6FEC7
:100910001030002400BFFEE70FB4054B10B503A94B
:10092000044A029800F0DAF810BC5DF814FB0000ED
:10093000011500087800002002E008C8121F08C155
:10094000002AFAD170477047002001E001C1121F50
:10095000002AFBD1704700002DE9FF5F82B0002123
:10096000DDE90430020DDDF840B0034318D044F651
:100970001050A2F2FF3242431514119801281FD0E3
:10098000A5EB0B00401C5FEA000A4FF000064E4F3B
:10099000DFF83891B046504615D5CAF1000413E08F
:1009A000119801244AA3012801D16FEA0B01029892
:1009B000119AC0E90031C0E9024206B0BDE8F09FDB
:1009C000CBF10000DFE704460021404A491842EB22
:1009D0000450CDE9001012E0E00707D032463B4654
:1009E00040464946FFF7A5FC8046894632463B46CD
:1009F00010461946FFF79DFC06460F466410002C72
:100A0000EAD1DDE90401DDE90023BAF1000F06DADD
:100A1000FFF78FFC42464B46FFF78BFC05E0FFF7E4
:100A2000FAFC42464B46FFF7F6FC04460E4600220F
:100A3000284BFFF7AFFE03D84FF0FF30014607E029
:100A40000022254B20463146FFF7CCFBFFF78AFEFC
:100A5000102409E0002C0ADB0A220023FFF79CFD8A
:100A6000039B30321A55641E50EA0102F2D1641C15
:100A7000039AC4F111031444119A012A03D00122EC
:100A800008430DD10AE0084304D000204FF0110BB9
:100A9000119072E7A3EB0B056D1E0DE05B4504DDC5
:100AA0004FF0000205F1010504E003DA4FF0000207
:100AB000A5F10105002AECD002981199C0E9023194
:100AC000C0E9004579E70000000014400000F03F55
:100AD000300000000000F0430000E03F2DE9FF4F30
:100AE00095B09B468946064600250FE2252877D11A
:100AF00000242746F84A0121059400E0044316F833
:100B0000013F203B01FA03F01042F7D130782A2848
:100B100011D06FF02F033078A0F13002092A16D8D7
:100B2000059A44F0020402EB820203EB42021044F5
:100B3000761C0590EFE759F8042B0592002A03DA9A
:100B4000504244F40054059044F00204761C30787E
:100B50002E2816D116F8010F44F004042A280DD0CF
:100B60006FF02F023078A0F13003092B09D807EB82
:100B7000870302EB4303C718761CF3E759F8047B9D
:100B8000761C30786C280FD006DC4C2817D06828EB
:100B90000DD06A2814D104E0742810D07A280FD11F
:100BA0000DE044F400140AE044F4801401E044F43D
:100BB00040147278824202D104F58014761C761CAF
:100BC000307866280BD013DC582877D009DC002851
:100BD00075D04528F6D04628F4D047281AD19DE193
:100BE00018E0632835D0642879D0652812D195E1C2
:100BF000702873D008DC6728F1D069286FD06E2880
:100C00000DD06F2806D1B5E073282CD0752875D08B
:100C1000782874D05A46179990476D1C75E1C4F333
:100C20000250022809D003280DD0D9F8001004285A
:100C30000DD00D6009F1040967E1D9F80010EA1739
:100C4000C1E90052F6E7D9F800100D80F2E70D7007
:100C5000F0E719F8041B8DF8001000208DF8010052
:100C6000EA46012003E059F804AB4FF0FF3061077A
:100C70004FF0000102D40DE008F101018846B942AD
:100C80000FDA8045F8DB1AF808100029F4D108E0E3
:100C900008F1010188468142FADB1AF808100029A0
:100CA000F6D105985B46A0EB080721463846179A0F
:100CB00000F094FA284400EB080507E04DE029E134
:100CC0000DE01AF8010B5A4617999047B8F1010840
:100CD000F7D25B4621463846179A13E142E00A22D2
:100CE0000092C4F302524FF0000A022A08D059F8C9
:100CF00004CB032A4FEAEC710AD00DE029E02AE088
:100D000009F1070121F00702F2E802C1914609E06A
:100D10000FFA8CFC4FEAEC71042A03D14FFA8CFCD9
:100D20004FEAEC71002907DA0A460021DCF1000CD9
:100D300061EB02012D2202E0220504D52B228DF861
:100D40000420012203E0E20701D02022F7E79046C9
:100D500059E00A2102E010220DE010214FF0000AB4
:100D600000910BE010224FF0000A44F00404082721
:100D7000009203E008224FF0000A0092C4F30252EE
:100D8000022A05D059F804CB0021032A08D009E033
:100D900009F1070121F00702F2E802C1914605E0DE
:100DA0001FFA8CFC042A01D10CF0FF0C4FF0000854
:100DB000220728D5702806D0009B83F0100353EA41
:100DC0000A0305D00EE040228DF80420012208E03D
:100DD0005CEA010206D030228DF804208DF805006F
:100DE00002229046009B83F0080353EA0A030AD1CB
:100DF0005CEA010201D1620705D530228DF804209A
:100E00004FF001087F1E582804D034A003900EA88C
:100E100002900DE036A0F9E753466046009AFFF7CE
:100E2000BBFB84460398825C0298401E02900270CD
:100E30005CEA0100F0D1029806A9081A00F1200A24
:100E4000600702D524F4803400E00127574502DD15
:100E5000A7EB0A0000E0002000EB0A0100900598D3
:100E60004144401A0590E00306D45B462146179A98
:100E7000059800F0B3F90544002706E001A85A469A
:100E8000C05D179990476D1C7F1C4745F6DBE0035A
:100E90000CD55B462146179A059800F09FF905444A
:100EA00004E030205A46179990476D1C0099481E5F
:100EB00000900029F5DC08E0029802995A46007873
:100EC000491C0291179990476D1CBAF10001AAF1D3
:100ED000010AF1DC65E100000928010030313233FC
:100EE0003435363738396162636465660000000066
:100EF0003031323334353637383941424344454650
:100F00000000000000F058F90544761C30780028F5
:100F10007FF4ECAD19B02846BDE8F08F620700D42D
:100F2000062709F1070222F0070CFCE80223E1463C
:100F300003F000485FEA080C02D00FF2702C0DE0BD
:100F40005FEA045C02D50FF2682C07E05FEAC47C1C
:100F500002D00FF2602C01E0AFF2700C4FF0FF38BE
:100F600023F00043CDF850C065280CD006DC45289E
:100F700009D046281DD047283DD13DE0662818D02D
:100F800067287ED138E00021112F01DB112000E01D
:100F9000781CCDE9000106A90EA8FFF7DDFCDDE90C
:100FA0000F010E9A03910021009207F1010A0491AA
:100FB0004DE04FF000400097CDE9011006A90EA8C2
:100FC000FFF7CAFCDDE90F0203920E9B1199002284
:100FD000DDF80CA00093049211B9791C00EB010A12
:100FE000B7EB0A0004D4C0F1FF3007F1010A049006
:100FF000AAEB0700019044E0012F00DA012700214D
:10100000112F01DD112000E03846CDE9000106A9CD
:101010000EA8FFF7A1FCDDE90F010E9A0391002154
:1010200004910092BA4621070CD40399514500DA85
:101030008A46BAF1010F05DD009AAAF10101515C5F
:10104000302908D0B84202DA10F1040F06DA012183
:10105000CDE9011015E0AAF10101E9E7002805DC5E
:10106000049901440491AAEB000102E0411C51459E
:1010700000DD8A460499401A401C01904FF0004060
:101080000290200704D40198504501DBCDF804807C
:1010900000208DF84F0002980DF14F07B0F1004F7E
:1010A00025D02B200E9002984FF0020800280CDA71
:1010B000404202902D200E9007E00A210298FFF78F
:1010C00055FA3031029007F8011DB8F10001A8F17E
:1010D0000108F2DC02980028EFD1791E0E98087002
:1010E000307800F0200040F0450007F8020D12A80B
:1010F000C01B00F107081498007800B1012000EB34
:101100000A01019801EBE07105984144401A401E24
:101110000590E00306D45B462146179A059800F037
:101120005DF805441498007818B15A46179990470D
:101130006D1CE00324D55B462146179A059800F004
:101140004DF805441CE00498002807DBDDE90301A5
:10115000884203DD0098405C179901E01799302020
:101160005A469047049805F10105401C04900198E7
:10117000401E019004D12E205A46179990476D1CAD
:10118000BAF10001AAF1010ADDDC05E017F8010B54
:101190005A46179990476D1CB8F10001A8F1010853
:1011A000F4DC5B462146179A0598ABE62D0000005B
:1011B0002B000000200000002DE9F041044600252E
:1011C0001E461746880404D405E039462020B0475F
:1011D0006D1C641EF9D52846BDE8F0812DE9F0416B
:1011E000044600251E469046C80301D5302700E07E
:1011F0002027880404D505E041463846B0476D1CD9
:10120000641EF9D52846BDE8F081816841F00801E7
:10121000816000BF816801F008010029FAD181686E
:1012200041F00401816000BF816801F004010029E0
:10123000FAD17047A1B100F4800232B1134A1268AA
:1012400042F48002124BC3F8042300F40002DAB126
:101250000E4A126842F400020D4BC3F8042313E057
:1012600000F4800232B1094A126822F48002084B6D
:10127000C3F8042300F4000232B1044A126822F4D5
:101280000002034BC3F8042370470000042301400D
:101290000020014030B5012902D0022920D10FE001
:1012A0006AB1102A0BD8C36A23F47003C362C36AFD
:1012B000541E4FF4700505EA04542343C36210E042
:1012C0006AB1042A0BD8836B23F440138363836BC6
:1012D000541E4FF4401505EA04542343836300E091
:1012E00000BF00BF30BD00000649096821F4E021BD
:1012F000054AC2F804131146D1F804130143C2F899
:1013000004137047042301400020014010B503225C
:1013100002211948FFF7BEFF0723102200211648BB
:1013200000F05AF8072311220121134800F054F865
:10133000072312220221104800F04EF80022022159
:101340000D4800F02FF800210B4800F017F801229B
:101350001102094800F090F801218805FFF76AFFA3
:101360000121C805FFF766FF034800F012F80248A4
:10137000FFF74BFF10BD00000020014021B1826843
:1013800042F40062826003E0826822F400628260BC
:101390007047816801F0010119B9816841F00101CC
:1013A00081607047012902D0022912D108E08368C8
:1013B00023F040538360836843EA0273836009E04B
:1013C000836823F440138360836843EA0253836095
:1013D00000E000BF00BF7047F0B50C46876BC7F355
:1013E0000156042C12D2856B371B07EB8707C7F118
:1013F0000F0C1F2707FA0CF7BD43371B07EB8707B6
:10140000C7F10F0702FA07F73D4385630A2A0DDA91
:10141000016902EB420C072707FA0CF7B94302EB0C
:10142000420703FA07F73943016112E0122A10DC80
:10143000C168A2F10A0707EB470C072707FA0CF768
:10144000B943A2F10A0707EB470703FA07F7394345
:10145000C160F0BD012902D002290AD104E08268EE
:1014600042F08042826005E0826842F4800282603D
:1014700000E000BF00BF7047AAB101F480731BB148
:10148000436843F48073436001F480631BB1436895
:1014900043F48063436001F00203CBB1836843F0FF
:1014A0000203836014E001F480731BB1436823F4EA
:1014B0008073436001F480631BB1436823F480634D
:1014C000436001F002031BB1836823F002038360D1
:1014D000704700000349086000BF024909680029FD
:1014E000FBD17047100000200448006820B1034879
:1014F0000068401E0149086070470000100000208D
:1015000070B504460D46E1B2054800F03BFC00BF53
:101510000721034800F0ADFC0028F9D0204670BD3B
:101520000010014070B5054600242748854200D1CF
:1015300000BF4FF4406000F0D1FA244931F81400A4
:1015400000F0CCFA224850F824200721214800F06E
:101550005DF8214850F8242007211E4800F056F875
:101560001B4850F82430012202211A4800F07FF86D
:10157000174850F8243002220021164800F09EF847
:10158000154850F8243001220221124800F06FF86B
:10159000114850F82430022200210E4800F08EF845
:1015A000284600F0F3FB4FF4E131284600F076FBCB
:1015B0000421284600F06CFC0821284600F070FC4D
:1015C000284600F051FC70BD001001402C000020A6
:1015D000300000200000024034000020034951F890
:1015E0002010034A52F8202091627047200000200A
:1015F00014000020034951F82010034A52F820201B
:10160000916170472000002014000020F0B50346CF
:101610001C6A5D6A00200DE00126864016403EB13E
:1016200087000F26BE40B443860001FA06F6344315
:10163000461CB0B20828EFD3082011E001268640EE
:1016400016405EB1A0F10806B7000F26BE40B543B4
:10165000A0F10806B60001FA06F63543461CB0B202
:101660001028EBD31C625D62F0BD81627047F0B55B
:1016700004460D4616462168E268002019E001275D
:1016800087401F409FB14FEA400C032707FA0CF731
:10169000B943470005FA07F739434FEA400C0327DF
:1016A00007FA0CF7BA43470006FA07F73A43471C14
:1016B000B8B21028E3D32160E260F0BDF0B50C466B
:1016C0001546012C03D146681E43466002E0466879
:1016D0009E434660826800210DE001268E401E4038
:1016E0003EB14F000326BE40B2434E0005FA06F657
:1016F00032434E1CB1B21029EFD38260F0BD70B5F9
:10170000044600251AE00020FFF774FF0120FFF7D0
:1017100071FF0220FFF76EFF4FF47A70FFF7DAFED9
:101720000020FFF75BFF0120FFF758FF0220FFF7C3
:1017300055FF4FF47A70FFF7CDFE6D1CA542E2DB3A
:1017400070BD000010B540F6034000F0C7F940F648
:10175000064000F0C3F93023002201210E48FFF7B4
:1017600086FF3023022200210B48FFF7A7FF082342
:10177000002201210948FFF77AFF082302220021F5
:101780000648FFF79BFF30210348FFF76EFF082153
:101790000248FFF76AFF10BD000C0240001802402B
:1017A0002DED0E8B00F090F9FFF7B0FD00F04EFA32
:1017B0005448FFF7B7FEFFF7C5FF0320FFF79FFF71
:1017C0009EE002215048FFF745FE4FF4FA60FFF714
:1017D00081FE4D49C86BFEF78DFE41EC1E0B9FED5F
:1017E0004B0B53EC102BFEF7A4FD41EC1D0B9FEDB2
:1017F000490B53EC102BFEF70EFE41EC1C0B9FED3A
:10180000470B53EC102BFEF791FD41EC1B0B9FEDAA
:10181000450B53EC102BFEF78CFD41EC1A0B9FEDA2
:10182000430B53EC102BFEF7F6FD41EC190B9FED2B
:10183000410B53EC102BFEF7D5FC41EC180BFEF7D7
:1018400079FE3E4908603049086CFEF753FE41ECD2
:101850001A0B9FED2E0B53EC102BFEF76AFD41EC9B
:10186000190B9FED2C0B53EC102BFEF7D4FD41EC24
:10187000180BFEF75FFE324908602349496C880067
:10188000FEF738FE41EC1A0B9FED200B53EC102BAA
:10189000FEF74FFD41EC190B9FED1E0B53EC102B87
:1018A000FEF7B9FD41EC180BFEF744FE2549086030
:1018B00022480068FEF72BFE41EC180B53EC182B66
:1018C00021A0FFF729F81E480068FEF720FE41EC32
:1018D000180B53EC182B23A0FFF71EF819480068CB
:1018E000FEF715FE41EC180B53EC182B24A0FFF764
:1018F00013F82BA0FFF710F84FF47A70FFF7EAFD0A
:101900005FE7000000100140002001406666666647
:1019100066660A40000000000000B040B81E85EB7B
:1019200051B8F63F0000000000408F4066666666D2
:1019300066661140000000000000394004000020ED
:10194000080000200C0000207468652074656D702C
:10195000657261747572652069732025322E306658
:101960000D0A000074686520767265665F76616CAA
:1019700075652069732025332E30660D0A0000003E
:1019800074686520626174746572795F76616C75E4
:10199000652069732025332E30660D0A0000000093
:1019A000200D0A002DE9F04F8CB0064600200A9069
:1019B0003EA090E8004CC068CDE905BECDF810A06F
:1019C00007900FF2EC0ADAE9000ACDE9020A0FF2F9
:1019D000E00ADAE9000ACDE9000A38480068C0F3F5
:1019E00081000B900B9820B1012804D0022828D147
:1019F00003E0334927E0334925E03048001F006801
:101A000000F03F072D48001F0068C0F3881C2B48DA
:101A1000001F0068C0F30140401C4FEA40092748FE
:101A2000001F006800F48008B8F5800F01D1254B35
:101A300000E0234BB3FBF7F000FB0CF0B0FBF9F137
:101A400001E01F4900BF00BF1C480068C0F3031439
:101A500004A8055D21FA05F218480068C0F3822445
:101A600002A8055D22FA05F0099014480068C0F349
:101A700042341DF8045022FA05F0089036B1012EC8
:101A800006D0022E06D0032E0AD106E00A9108E005
:101A90000A9206E009980A9003E008980A9000E08C
:101AA00000BF00BF0A980CB0BDE8F08F0000000036
:101AB000000000000102030406070809083802407C
:101AC0000024F40040787D0110B541F2081000F0C8
:101AD00005F84FF48030FFF707FC10BD074A02EB12
:101AE0009011D1F8001800F01F0301229A40114311
:101AF000024B03EB9012C2F800187047003002400E
:101B0000074A02EB9011D1F8001800F01F030122E0
:101B10009A409143024B03EB9012C2F800187047B1
:101B200000300240074A02EB9011D1F8001800F093
:101B30001F0301229A401143024B03EB9012C2F89B
:101B40000018704700300240002000213A4A126815
:101B500042F48032384B1A6000BF401C364A12688B
:101B600002F4003119B94FF6FF729042F5D1324AB2
:101B7000126802F400320AB900BFFEE72E4A403272
:101B8000126842F080522C4B40331A602B4A126884
:101B900042F44042294B1A60274A08321268264B09
:101BA00008331A601A46126842F400421A601A4654
:101BB000126842F4A0521A60214A1B1F1A601A1FB1
:101BC000126842F080721B1F1A6000BF1A4A126826
:101BD00002F00072002AF9D0184A126842F48032EA
:101BE000164B1A6000BF154A526802F48032002A70
:101BF000F9D0124A126842F40032104B1A6000BF4A
:101C00000E4A526802F40032002AF9D00A4A083219
:101C1000126822F00302084B08331A601A46126851
:101C200042F002021A6000BF034A0832126802F052
:101C30000802002AF8D070470038024000700040C7
:101C40001964400910B5FFF77FFF10BD10B51248A9
:101C500000684FF47A71B0FBF1F4601EB0F1807F40
:101C600001D301200FE0601E4FF0E02148610F21F9
:101C70004FF0FF30FEF7D0FD00204FF0E0218861EB
:101C800007200861002008B100BFFEE70021481EC0
:101C9000FEF7C2FD10BD0000000000202DE9F04756
:101CA00004460D460027B846B94600263349601A57
:101CB0008C4235D00CDC32482044E8B1B0F5806F5E
:101CC0001FD0B0F5006F21D0B0F5406F32D122E0C7
:101CD000B0F5806F29D0B0F5184F03D0B0F51C4F88
:101CE00028D104E00320FFF75DFE074623E0032030
:101CF000FFF758FE07461EE00220FFF753FE074697
:101D000019E00220FFF74EFE074614E00220FFF71D
:101D100049FE07460FE00220FFF744FE07460AE0AF
:101D20000220FFF73FFE074605E00220FFF73AFEDC
:101D3000074600E000BF00BFE06800F4004070B15B
:101D4000780000EB5500B0FBF5F64FF6F07006EAB0
:101D50000008C6F3420948EA0900A0600CE007EB5E
:101D60005500B0FBF5F64FF6F07006EA000806F0F5
:101D70000F0948EA0900A060BDE8F087007800403C
:101D800000BCFFBFC1F308024260704710B50446B3
:101D90003349601A8C424DD00CDC32482044E0B10B
:101DA000B0F5806F22D0B0F5006F31D0B0F5406F44
:101DB00052D136E0B0F5806F45D0B0F5184F03D062
:101DC000B0F51C4F48D11AE040F60410FFF7AAFE08
:101DD00040F60410FFF794FE3FE040F61100FFF7D5
:101DE000A1FE40F61100FFF78BFE36E040F6120030
:101DF000FFF798FE40F61200FFF782FE2DE040F656
:101E00000510FFF78FFE40F60510FFF779FE24E07E
:101E100040F61300FFF786FE40F61300FFF770FE52
:101E20001BE040F61400FFF77DFE40F61400FFF7BC
:101E300067FE12E040F61E00FFF774FE40F61E003B
:101E4000FFF75EFE09E040F61F00FFF76BFE40F66D
:101E50001F00FFF755FE00E000BF00BF10BD0000EF
:101E60000078004000BCFFBFC16841F40051C16070
:101E7000704710B5024602EB9110006801F01F0494
:101E80000123A340184008B1012010BD0020FCE749
:101E90000A460021C16821F004011143C160704766
:101EA0000A460021C16821F008011143C160704752
:101EB000D01E0008000000207C0000003809000847
:101EC0004C1F00087C0000200404000048090008A2
:101ED00000C2EB0B0000000000000000000000004A
:101EE00000000000000C0240000C024000180240FC
:101EF0001000000020000000080000000411000095
:101F00000002000000040000030C030C060C00009B
:101F100000000240000802400004024001000000EE
:101F20000020000000400000000C020C010C00002A
:101F3000010000000020000000400000000201003D
:0C1F40000D0E0628280000000000000024
:04000005080001AD41
:00000001FF
