:020000040800F2
:1000000070040020C1010008170200080F02000858
:100010001302000809020008150300080000000090
:100020000000000000000000000000004302000883
:100030000D0200080000000041020008450200080F
:10004000DB010008DB010008DB010008DB01000820
:10005000DB010008DB010008DB010008DB01000810
:10006000DB010008DB010008DB010008DB01000800
:10007000DB010008DB010008DB010008DB010008F0
:10008000DB010008DB010008DB010008DB010008E0
:10009000DB010008DB010008DB010008DB010008D0
:1000A000DB010008DB010008DB010008DB010008C0
:1000B000DB010008DB010008DB010008DB010008B0
:1000C000DB010008DB010008DB010008DB010008A0
:1000D000DB010008DB010008DB010008DB01000890
:1000E000DB010008DB010008DB010008DB01000880
:1000F000DB010008DB010008DB010008DB01000870
:10010000DB010008DB010008DB010008DB0100085F
:10011000DB010008DB010008DB010008DB0100084F
:10012000DB010008DB010008DB010008DB0100083F
:10013000DB010008DB010008DB010008DB0100082F
:10014000DB010008DB010008DB010008DB0100081F
:10015000DB010008DB010008DB010008DB0100080F
:10016000DB010008DB010008DB010008DB010008FF
:10017000DB010008DB010008DB01000800000000D3
:10018000DB010008DB010008DB010008DB010008DF
:10019000DB010008DB010008DB01000800000000B3
:1001A000DB010008DB010008DB010008DFF80CD0F0
:1001B00000F018F8004800471506000870040020F9
:1001C0000648804706480047FEE7FEE7FEE7FEE7F1
:1001D000FEE7FEE7FEE7FEE7FEE7FEE74D0200086A
:1001E000AD010008064C074D06E0E06840F0010351
:1001F00094E8070098471034AC42F6D3FFF7DAFFD3
:10020000080800082808000800BFFEE7704700BF84
:10021000FEE700BFFEE7704710B5002807DA0A07BF
:10022000140E054A00F00F031B1FD45403E00A0705
:10023000130E024A135410BD18ED00E000E400E074
:100240007047704710B500F01DF910BD08B52D4876
:10025000006840F470002B4908602B48006840F0AB
:1002600001002949086028480830006840F08000F3
:100270002549083108600020009002E00098401CE9
:1002800000904CF2503100988842F7D31E48083055
:10029000006840F090001C49083108600020009080
:1002A00002E00098401C00904CF2503100988842C7
:1002B000F7D315480830006820F0030012490831D0
:1002C000086011480068114908400F490860084655
:1002D000006820F48020086000200B490831086085
:1002E00000BF09480830006800200028F9D10848FC
:1002F0000549091D0860002003490C31086000F021
:1003000057FA08BD88ED00E000380240FFFFF6FE16
:100310001030002400BFFEE702E008C8121F08C129
:10032000002AFAD170477047002001E001C1121F76
:10033000002AFBD1704710B500F040F8002000F013
:100340006BF80021084600F079F8002000F052F820
:10035000002000F03DF847F6F0720121002000F087
:1003600001F810BD90B921B1012905D002290BD1A6
:1003700006E0114B1A6008E00F4B1B1D1A6004E0E9
:100380000D4B08331A6000E000BF13E021B10129D2
:1003900006D002290CD107E0074B0C331A6008E0A5
:1003A000054B10331A6004E0034B14331A6000E06D
:1003B00000BF00BF704700000874004010B540F651
:1003C0001D0000F065F940F61D0000F04FF910BD6A
:1003D00030B90749096841F00101054A116005E09B
:1003E0000349096841F48031014A116070470000F7
:1003F0000074004030B90749096821F00201054A3C
:10040000116005E00349096821F40031014A1160D7
:10041000704700000074004030B90749096821F0B6
:100420000401054A116005E00349096821F48021AF
:10043000014A1160704700000074004050B90B4A37
:10044000126822F0C002094B1A601A4612680A4369
:100450001A600AE0054A126822F44002034B1A604F
:100460001A46126842EA01421A607047007400405E
:100470000349086000BF024909680029FBD17047A1
:10048000040000200448006820B103480068401EB2
:10049000014908607047000004000020034951F83A
:1004A0002010034A52F82020916270471400002067
:1004B00008000020034951F82010034A52F8202078
:1004C000916170471400002008000020816270478D
:1004D00010B5102300220321014800F003F810BDDD
:1004E00000000240F0B504460D4616462168E26859
:1004F000002019E0012787401F409FB14FEA400CC0
:10050000032707FA0CF7B943470005FA07F7394301
:100510004FEA400C032707FA0CF7BA43470006FAE4
:1005200007F73A43471CB8B21028E3D32160E260D2
:10053000F0BDF0B50C461546012C03D146681E43AC
:10054000466002E046689E434660826800210DE0F6
:1005500001268E401E403EB14F000326BE40B243EE
:100560004E0005FA06F632434E1CB1B21029EFD305
:100570008260F0BD70B5044600251AE00020FFF748
:1005800099FF0120FFF796FF0220FFF793FF4FF43A
:100590007A70FFF76DFF0020FFF780FF0120FFF763
:1005A0007DFF0220FFF77AFF4FF47A70FFF760FFBC
:1005B0006D1CA542E2DB70BD10B540F6034000F0B3
:1005C00043F840F6064000F03FF8302300220121B6
:1005D0000E48FFF787FF3023022200210B48FFF768
:1005E000A8FF0823002201210948FFF77BFF082309
:1005F000022200210648FFF79CFF30210348FFF745
:1006000065FF08210248FFF761FF10BD000C0240A2
:1006100000180240FFF7D0FF00F00BF8FFF758FF7B
:1006200000F0CAF8FFF787FE0220FFF7A3FF00BF24
:10063000FEE710B54FF4406000F006F841F21D00EF
:1006400000F002F810BD0000074A02EB9011D1F84B
:10065000001800F01F0301229A401143024B03EBE4
:100660009012C2F80018704700300240074A02EBAF
:100670009011D1F8001800F01F0301229A40914315
:10068000024B03EB9012C2F8001870470030024092
:10069000074A02EB9011D1F8001800F01F03012265
:1006A0009A401143024B03EB9012C2F800187047B6
:1006B00000300240002000213A4A126842F48032A1
:1006C000384B1A6000BF401C364A126802F40031F1
:1006D00019B94FF6FF729042F5D1324A126802F40E
:1006E00000320AB900BFFEE72E4A4032126842F0DB
:1006F00080522C4B40331A602B4A126842F440421D
:10070000294B1A60274A08321268264B08331A60B0
:100710001A46126842F400421A601A46126842F4FD
:10072000A0521A60214A1B1F1A601A1F126842F059
:1007300080721B1F1A6000BF1A4A126802F0007212
:10074000002AF9D0184A126842F48032164B1A6017
:1007500000BF154A526802F48032002AF9D0124ACA
:10076000126842F40032104B1A6000BF0E4A526801
:1007700002F40032002AF9D00A4A0832126822F044
:100780000302084B08331A601A46126842F002024C
:100790001A6000BF034A0832126802F00802002AF9
:1007A000F8D07047003802400070004019644009DA
:1007B00010B5FFF77FFF10BD10B5124800684FF469
:1007C0007A71B0FBF1F4601EB0F1807F01D301209B
:1007D0000FE0601E4FF0E02148610F214FF0FF3025
:1007E000FFF71AFD00204FF0E02188610720086123
:1007F000002008B100BFFEE70021481EFFF70CFDF6
:1008000010BD0000000000202808000800000020A3
:100810006C00000018030008940800086C00002019
:10082000040400002803000800C2EB0B00000000D5
:10083000000C0240000C02400018024010000000B2
:100840002000000008000000041100000002000069
:1008500000040000030C030C060C00000000024022
:1008600000080240000402400100000000200000D7
:1008700000400000000C020C010C00000100000010
:100880000020000000400000000201000D0E0628BC
:04089000280000003C
:04000005080001AD41
:00000001FF
