:020000040800F2
:1000000068040020C1010008170200080F02000860
:100010001302000809020008ED02000800000000B9
:100020000000000000000000000000001B020008AB
:100030000D02000800000000190200081D0200085F
:10004000DB010008DB010008DB010008DB01000820
:10005000DB010008DB010008DB010008DB01000810
:10006000DB010008DB010008DB010008DB01000800
:10007000DB010008DB010008DB010008DB010008F0
:10008000DB010008DB010008DB010008DB010008E0
:10009000DB010008DB010008DB010008DB010008D0
:1000A000DB010008DB010008DB010008DB010008C0
:1000B000DB010008DB010008DB010008DB010008B0
:1000C000DB010008DB010008DB010008DB010008A0
:1000D000DB010008DB010008DB010008DB01000890
:1000E000DB010008DB010008DB010008DB01000880
:1000F000DB010008DB010008DB010008DB01000870
:10010000DB010008DB010008DB010008DB0100085F
:10011000DB010008DB010008DB010008DB0100084F
:10012000DB010008DB010008DB010008DB0100083F
:10013000DB010008DB010008DB010008DB0100082F
:10014000DB010008DB010008DB010008DB0100081F
:10015000DB010008DB010008DB010008DB0100080F
:10016000DB010008DB010008DB010008DB010008FF
:10017000DB010008DB010008DB01000800000000D3
:10018000DB010008DB010008DB010008DB010008DF
:10019000DB010008DB010008DB01000800000000B3
:1001A000DB010008DB010008DB010008DFF80CD0F0
:1001B00000F018F8004800476D05000868040020AA
:1001C0000648804706480047FEE7FEE7FEE7FEE7F1
:1001D000FEE7FEE7FEE7FEE7FEE7FEE72502000892
:1001E000AD010008064C074D06E0E06840F0010351
:1001F00094E8070098471034AC42F6D3FFF7DAFFD3
:10020000380800085808000800BFFEE7704700BF24
:10021000FEE700BFFEE770477047704710B500F07B
:1002200077F810BD08B52D48006840F470002B49E0
:1002300008602B48006840F0010029490860284800
:100240000830006840F0800025490831086000202F
:10025000009002E00098401C00904CF25031009851
:100260008842F7D31E480830006840F090001C49CF
:10027000083108600020009002E00098401C0090C7
:100280004CF2503100988842F7D315480830006886
:1002900020F0030012490831086011480068114934
:1002A00008400F4908600846006820F48020086074
:1002B00000200B490831086000BF09480830006879
:1002C00000200028F9D108480549091D08600020D0
:1002D00003490C31086000F0ABFA08BD88ED00E07E
:1002E00000380240FFFFF6FE1030002400BFFEE79A
:1002F00002E008C8121F08C1002AFAD170477047EF
:10030000002001E001C1121F002AFBD1704700004C
:100310000448006820B103480068401E0149086095
:10032000704700000000002010B52D4B1B68834370
:100330002B4C2360231D1B688343241D2360231D36
:100340001B688343241D2360231D1B688343241DD6
:10035000236011B101290ED105E0214B1B68034335
:100360001F4C236008E01E4B1B1D1B6803431C4CE5
:10037000241D236000E000BF00BF32B1012A11D06C
:10038000022A1CD0032A27D127E0154B08331B680B
:100390000343134C08342360231D1B688343241D2F
:1003A00023601BE00E4B08331B6883430C4C08345E
:1003B0002360231D1B680343241D23600EE0084BAC
:1003C00008331B680343064C08342360231D1B6855
:1003D0000343241D236001E000BF00BF00BF10BD28
:1003E000003C01400149086070470000143C014096
:1003F00070B504460D46174931F8140000F032F983
:1004000041F20E1000F02EF9134951F8243013492F
:1004100051F824000022114600F060F8012D17D198
:100420000F49085D0022022100F0B0F80D4A115D6D
:100430000D4A105D00F028F90C4951F82400012202
:100440000021FFF771FF094951F82400FFF7CAFFA7
:1004500070BD0000480000203C000020300000205B
:10046000620000205F0000205C000020500000209F
:1004700010B50446104931F8140000F0F3F80F49A4
:1004800051F824300E4951F824000022012100F0D7
:1004900025F80A4951F82430094951F8240002226C
:1004A000002100F042F8054850F82400044951F8B2
:1004B0002410886210BD00002800002010000020D9
:1004C00004000020034951F82010034A52F820206C
:1004D000916170471000002004000020F0B5044630
:1004E0000D4616462168E268002019E00127874082
:1004F0001F409FB14FEA400C032707FA0CF7B9439E
:10050000470005FA07F739434FEA400C032707FA7B
:100510000CF7BA43470006FA07F73A43471CB8B24C
:100520001028E3D32160E260F0BDF0B50C4615461B
:10053000012C03D146681E43466002E046689E4394
:100540004660826800210DE001268E401E403EB1CB
:100550004F000326BE40B2434E0005FA06F6324372
:100560004E1CB1B21029EFD38260F0BD0020FFF71E
:100570007FFF0120FFF77CFF01210846FFF738FFCE
:1005800002E00020FFF79EFFFBE700002DE9F041AD
:1005900003460D46164600240027A0462A48006858
:1005A00000F4E060B0F5E06F03D100BF4FF0040845
:1005B00030E02548006800F4E060B0F5C06F03D17A
:1005C00001274FF0030825E01F48006800F4E060B1
:1005D000B0F5A06F02D10227B8461BE01A480068A8
:1005E00000F4E060B0F5806F03D103274FF00108FD
:1005F00010E01548006800F4E060B0F5407F03D1DA
:1006000004274FF0000805E04FF4A06000F020F848
:100610000227B846C7F1040005FA00F4C8F1040146
:100620000F20C8403040044324010848C45403F05C
:100630001F01012088405911890001F1E021C1F812
:100640000001BDE8F08100000CED00E000E400E0F6
:1006500002490143024A1160704700000000FA0598
:100660000CED00E0074A02EB9011D1F8001800F001
:100670001F0301229A401143024B03EB9012C2F870
:10068000001870470030024070B504460B46CD1785
:1006900001EB9575AD10A1EB8505AE000F25B540BA
:1006A000E843CD1701EB9575AD10A1EB8505AD00C5
:1006B00004FA05F2CD1701EB9575AD1035B1012D9A
:1006C0000ED0022D18D0032D2ED121E0184B1B681F
:1006D0000340174D2B602B461B6813432B6024E00F
:1006E000134B1B1D1B680340114D2D1D2B602B460A
:1006F0001B6813432B6018E00D4B08331B68034045
:100700000B4D08352B602B461B6813432B600CE008
:10071000074B0C331B680340054D0C352B602B46F3
:100720001B6813432B6000E000BF00BF70BD0000DA
:1007300008380140002000213A4A126842F4803211
:10074000384B1A6000BF401C364A126802F4003170
:1007500019B94FF6FF729042F5D1324A126802F48D
:1007600000320AB900BFFEE72E4A4032126842F05A
:1007700080522C4B40331A602B4A126842F440429C
:10078000294B1A60274A08321268264B08331A6030
:100790001A46126842F400421A601A46126842F47D
:1007A000A0521A60214A1B1F1A601A1F126842F0D9
:1007B00080721B1F1A6000BF1A4A126802F0007292
:1007C000002AF9D0184A126842F48032164B1A6097
:1007D00000BF154A526802F48032002AF9D0124A4A
:1007E000126842F40032104B1A6000BF0E4A526881
:1007F00002F40032002AF9D00A4A0832126822F0C4
:100800000302084B08331A601A46126842F00202CB
:100810001A6000BF034A0832126802F00802002A78
:10082000F8D0704700380240007000401964400959
:1008300010B5FFF77FFF10BD58080008000000202A
:1008400068000000F0020008C008000868000020EE
:10085000000400000003000800000000000C02403B
:10086000000C0240001802401000000020000000B0
:100870000800000004110000000200000004000055
:10088000030C030C060C00000000024000080240AC
:1008900000040240010000000020000000400000B1
:1008A000000C020C010C0000010000000020000000
:1008B00000400000000201000D0E06282800000084
:04000005080001AD41
:00000001FF
